:100000000C942A010C9447010C9447010C9447016D
:100010000C9447010C9447010C94DC040C944701A8
:100020000C9447010C9447010C9447010C947504FF
:100030000C944E040C949C040C9447010C944701BE
:100040000C9447010C9447010C9447010C94470110
:100050000C94470100C1814001C0804101C0804132
:1000600000C1814001C0804100C1814000C1814088
:1000700001C0804101C0804100C1814000C1814078
:1000800001C0804100C1814001C0804101C0804168
:1000900000C1814001C0804100C1814000C1814058
:1000A00001C0804100C1814001C0804101C0804148
:1000B00000C1814000C1814001C0804101C0804138
:1000C00000C1814001C0804100C1814000C1814028
:1000D00001C0804101C0804100C1814000C1814018
:1000E00001C0804100C1814001C0804101C0804108
:1000F00000C1814000C1814001C0804101C08041F8
:1001000000C1814001C0804100C1814000C18140E7
:1001100001C0804100C1814001C0804101C08041D7
:1001200000C1814001C0804100C1814000C18140C7
:1001300001C0804101C0804100C1814000C18140B7
:1001400001C0804100C1814001C0804101C08041A7
:1001500000C1814000C0C101C30302C2C60607C777
:1001600005C5C404CC0C0DCD0FCFCE0E0ACACB0BE7
:10017000C90908C8D81819D91BDBDA1A1EDEDF1F17
:10018000DD1D1CDC14D4D515D71716D6D21213D307
:1001900011D1D010F03031F133F3F23236F6F737B7
:1001A000F53534F43CFCFD3DFF3F3EFEFA3A3BFBA7
:1001B00039F9F83828E8E929EB2B2AEAEE2E2FEF57
:1001C0002DEDEC2CE42425E527E7E62622E2E323C7
:1001D000E12120E0A06061A163A3A26266A6A767F7
:1001E000A56564A46CACAD6DAF6F6EAEAA6A6BAB67
:1001F00069A9A86878B8B979BB7B7ABABE7E7FBF97
:100200007DBDBC7CB47475B577B7B67672B2B37386
:10021000B17170B050909151935352929656579736
:10022000559594549C5C5D9D5F9F9E5E5A9A9B5B26
:1002300099595898884849894B8B8A4A4E8E8F4FD6
:100240008D4D4C8C44848545874746868242438346
:100250004181804011241FBECFE5D4E0DEBFCDBF79
:1002600010E0A0E6B0E0ECEEF6E102C005900D92E1
:10027000A23AB107D9F712E0A2EAB0E001C01D929C
:10028000AF35B107E1F70E94C9020C94740B0C94CE
:100290000000DF93CF9300D000D0CDB7DEB79C83B2
:1002A0008B838C819B810F900F900F900F90CF913B
:1002B000DF91089580E487B984E886B910BE089577
:1002C000806487B9369A3699FECF24B135B1C90119
:1002D00008958F9A8E9AB89A0895EF92FF92CF93CD
:1002E000DF9381E00E946001E82EE7017E01F92E94
:1002F000E701F092A500E092A40082E00E94600174
:100300009093A7008093A600C80FD91F83E00E9496
:1003100060019093A9008093A800C80FD91F84E0C2
:100320000E9460019093AB008093AA00C80FD91F70
:10033000D695C795D695C795D093AD00C093AC0020
:10034000CE01DF91CF91FF90EF90089585E00E945C
:1003500060018093AE009093AF0008958FEF90E01E
:100360009093B1008093B000C098089581E090E030
:100370009093B1008093B000C09A08952091BE0080
:100380003091BF006217730770F02091B800309170
:10039000B9002817390748F02091BA003091BB0006
:1003A0002817390720F080E0089581E0089582E061
:1003B00008958F929F92AF92BF92CF92DF92EF9269
:1003C000FF920F931F93DF93CF930F92CDB7DEB7BA
:1003D000209165002093B2001092B3002631F9F00D
:1003E0002132C1F12B3009F0C6C0E0901201F0902B
:1003F0001301E114F10411F40E94AE010894E11C10
:10040000F11CF0921301E092120185E0E816F1046C
:1004100008F4B1C0109213011092120119C0E090BB
:100420001001F0901101E114F10411F40E94B601E1
:100430000894E11CF11CF0921101E0921001E5E03A
:10044000EE16F10408F497C01092110110921001F9
:1004500081E28FC080916300909164009093C3000B
:100460008093C200AC0141505040509364004093CF
:100470006300E0900C01F0900D0100910E011091CD
:100480000F01009769F129830E946D01A0E0B0E09F
:100490008E0D9F1DA01FB11F80930C0190930D0125
:1004A000A0930E01B0930F01E0900801F0900901B4
:1004B00000910A0110910B010E94A601A0E0B0E09A
:1004C0008E0D9F1DA01FB11F8093080190930901FD
:1004D000A0930A01B0930B012981209365004BC0C2
:1004E00094E6A92EB12CC12CD12CC801B701A601CC
:1004F00095010E94490B79018A0149016091080127
:100500007091090180910A0190910B01A60195015A
:100510000E94490B5901F092C500E092C40030934B
:10052000C7002093C60084E690E090936400809317
:10053000630010920C0110920D0110920E011092A6
:100540000F01109208011092090110920A011092F5
:100550000B01C701B9010E94BE01813019F486E187
:1005600080936500C401B5010E94BE01882319F47F
:100570008BE0809365000F90CF91DF911F910F91D9
:10058000FF90EF90DF90CF90BF90AF909F908F90B3
:100590000895DF92EF92FF920F931F93DF93CF9313
:1005A00000D00F92CDB7DEB7DE011196E0E6F0E0A5
:1005B00083E001900D928150E1F70E9469010E9451
:1005C0005A0180E061E040E000E01BE420E030E020
:1005D000EE240E94030584E361E0AE014F5F5F4FAC
:1005E00023E030E00E94DE0A78940E94B10582E5A3
:1005F00093E09093B9008093B80088E592E09093DF
:10060000BB008093BA0082E390E09093BD0080939A
:10061000BC008AEF90E09093BF008093BE0084E11D
:1006200090E09093C1008093C0000E94AE0130E43E
:10063000D32E20E8E22E28E3F22E21E0022F112D06
:100640000E94D3050894E108F108010911098FEF10
:10065000E8168FEFF8068FEF08078FEF180781F77E
:100660000E94D90182B38D2582BBE3CFEF92FF9226
:100670000F931F93CF93DF936130710551F543338F
:10068000510538F5182F092F809106019091070127
:10069000019690930701809306010E944901E12E83
:1006A000E7017E01F02EE7018993999302EA10E0B9
:1006B000F801819191918F010E9449018993999349
:1006C000F0E00C3C1F07A1F782B3805882BB80E0AA
:1006D00001C081E0DF91CF911F910F91FF90EF90CA
:1006E0000895EF92FF920F931F93CF93DF93EC0146
:1006F00061307105D1F543335105B8F5222399F4E2
:1007000002EA10E04AE2E42EF12CE80EF91EF801AC
:10071000819191918F010E94490189939993CE15FE
:10072000DF05A9F720C08C010E5F1F4F88819981DA
:100730000E9449019093BF008093BE008A819B81F3
:100740000E9449019093B9008093B800F80182811A
:1007500093810E9449019093BB008093BA0082B3B9
:1007600090E4892782BB80E001C081E0DF91CF91D6
:100770001F910F91FF90EF90089581E0089581E01F
:100780000895DC014FEF5FEF0FC02D91842F82277A
:1007900090E0FC01EC5AFF4F449145278C5A9E4F44
:1007A000FC015491615070406115710571F7352F4E
:1007B00020E0E42FF0E0E22BF32BCF01089510921C
:1007C000140181E0089591E0909314018093150144
:1007D00081E0089520911401222341F02091150118
:1007E000FC0120831092140181E0089580E00895B7
:1007F0009AB198649AB9882319F08AB1806902C0C5
:100800008AB18F768AB9662329F08AB188628AB95B
:10081000929A089555980895CF92DF92EF92FF92A1
:100820000F931F936A017B01122F84E0CC0CDD1C17
:10083000EE1CFF1C8A95D1F760E070E880E790E03D
:10084000A70196010E94490B215029B9033030F4C9
:10085000E02FF0E0EA59FF4F808101C080E01730BF
:1008600021F0183019F4866001C08460806880BD72
:1008700080E060E00E94F8038A9A929881E01F91DC
:100880000F91FF90EF90DF90CF9008958CB981E0A9
:1008900008952CB1FC01208381E008951F920F92EE
:1008A0000FB60F9211242F933F934F935F936F9343
:1008B0007F938F939F93AF93BF93EF93FF93E091B9
:1008C0005501F09156010995FF91EF91BF91AF91BC
:1008D0009F918F917F916F915F914F913F912F9158
:1008E0000F900FBE0F901F9018951F920F920FB68A
:1008F0000F9211242F933F934F935F936F937F93A6
:100900008F939F93AF93BF93EF93FF93E091590120
:10091000F0915A010995FF91EF91BF91AF919F918D
:100920008F917F916F915F914F913F912F910F9098
:100930000FBE0F901F9018951F920F920FB60F9237
:10094000112492980F900FBE0F901F9018951DBC08
:100950001CBC8091160190911701009729F029B7CE
:10096000206129BF9BBD8ABD8EB585608EBD08956F
:100970008EB58A7F8EBD89B78F7E89BF88B780612B
:1009800088BF0895BC0180E090E020E23CE140E0B7
:1009900050E00E942A0B20E23EE440E050E00E943A
:1009A000490B30931701209316011FBC1EBC1FBCBE
:1009B0000E94B80481E008951F920F920FB60F9223
:1009C00011242F933F934F935F936F937F938F9354
:1009D0009F93AF93BF93EF93FF93E0915701F091F3
:1009E00058010995FF91EF91BF91AF919F918F9120
:1009F0007F916F915F914F913F912F910F900FBE1B
:100A00000F901F901895EF920F931F93982F862F9A
:100A1000642FA90198010E2D782F7150773F08F0AF
:100A200041C080931A019923E9F5EAE9F6E0F093D1
:100A30002701E0932601E5EAF6E0F0932501E09333
:100A40002401E4EEF6E0F0931C01E0931B01EEEAD2
:100A5000F6E0F0931901E093180110922901109229
:100A60002801E1E3F7E0F0935A01E0935901EAE746
:100A7000F7E0F0935601E0935501E6EBF7E0F093D1
:100A80005801E09357010E946106082F882369F4FA
:100A90000E94DF03882341F010922A0181E08093B5
:100AA000690003C002E001C003E0802F1F910F9195
:100AB000EF90089518160CF041C0F8946115710577
:100AC00011F1EBE6F0E020E030E04081518141158A
:100AD000510519F04617570771F4F901EE0FFF1F82
:100AE000E20FF31FE659FF4F808372836183203149
:100AF000310509F506C02F5F3F4F33962031310590
:100B000021F784E019C0EAE6F0E020E030E09081CF
:100B1000981759F4F901EE0FFF1FE20FF31FE65982
:100B2000FF4F10821282118206C02F5F3F4F339613
:100B30002031310561F780E07894089582E00895CE
:100B400080916900813049F4E0912801F0912901F8
:100B5000309729F0099580E0089586E0089580E0B7
:100B6000089580916900813049F4E0912601F09167
:100B7000270109951092690080E0089586E00895A4
:100B800080916900882349F4E0912401F0912501C6
:100B9000099581E08093690002C0813011F480E002
:100BA000089586E00895DF93CF930F92CDB7DEB717
:100BB00080916900882309F07DC0CE0101960E94D2
:100BC000EA03813009F078C09981913021F09230A8
:100BD00009F072C01BC0E0911801F091190181E287
:100BE00091E062E271E04EE151E00995882309F05D
:100BF00063C08091210190911A01891719F088230F
:100C000009F05AC082E00E94E30356C0A09122017D
:100C1000B09123019C919093200180931D01EAE6FD
:100C2000F0E020E030E080818823C9F0891789F462
:100C3000F901EE0FFF1FE20FF31FE659FF4F01808E
:100C4000F281E02DCD016EE171E0099580931D01E7
:100C500006C02F5F3F4F33962031310521F7809139
:100C60002101882349F190911D01992399F0E09188
:100C70002201F09123018091200180688083E0911E
:100C80002201F0912301918382E090E090931F0173
:100C900080931E01609122017091230140911E01F9
:100CA00050911F01E0911B01F0911C0180911A01EC
:100CB000099502C086E001C080E00F90CF91DF91DE
:100CC0000895CF92DF92EF92FF920F93862F6901E2
:100CD0007A01F894BA01A90128E00E940C0481303D
:100CE00009F581E0C8168BE4D80680E0E80680E0CC
:100CF000F80668F4A7019601220F331F441F551F01
:100D000060EA7FE787E190E00E94490B04C023E29C
:100D100030E040E050E0C9010E94C204813011F48B
:100D200080E001C083E078940F91FF90EF90DF9016
:100D3000CF900895F89410922B0181E060E00E941A
:100D4000F8030E94A70478940895F89480E060E086
:100D50000E94F8030E94B80478940895EF92FF92DD
:100D60000F931F93CF93DF938C017B01EA01F894DB
:100D7000809131019091320184309105E0F06091D1
:100D80003101709132018FE591E00E94C10300971B
:100D900091F480915F01F8018083809131019091FD
:100DA000320103979983888380E691E0F70191836C
:100DB000808380E001C085E07894DF91CF911F911E
:100DC0000F91FF90EF9008951F93F89410912B01CD
:100DD000113009F042C0FB013197F0933001E093EC
:100DE0002F0121E030E030932E0120932D018083EC
:100DF00080912D0190912E01840F951F90932E01CB
:100E000080932D0160912D0170912E01CF010E94E0
:100E1000C103492F20912D0130912E01F901E15A92
:100E2000FE4F80832F5F3F4F30932E0120932D0183
:100E300080912D0190912E01FC01E15AFE4F4083DB
:100E4000019690932E0180932D0110932C0180E048
:100E500061E00E94F80380E001C085E078941F9172
:100E60000895DF93CF930F92CDB7DEB7CE010196F1
:100E70000E94490480912B01813039F0813098F132
:100E80008230B9F0833089F52EC010923201109271
:100E9000310180913101909132012981FC01E15AA7
:100EA000FE4F20830196909332018093310182E0BE
:100EB00018C080913101909132018F3F910509F066
:100EC00078F480913101909132012981FC01E15A3D
:100ED000FE4F20830196909332018093310103C02D
:100EE00083E080932B010E94A70480E00F90CF91B4
:100EF000DF9108951F9380912C01882319F0813090
:100F000089F505C081E060E00E94F8032BC0809164
:100F10002D0190912E010097D1F0E0912F01F091D9
:100F2000300180810E94460480912F019091300110
:100F300001969093300180932F0180912D01909123
:100F40002E01019790932E0180932D010BC083E019
:100F50000E94E303182F81E060E00E94F8031092E2
:100F60002C0101C010E0812F1F910895DF93CF93D2
:100F70000F92CDB7DEB780912B01882319F0823014
:100F800039F402C080E001C081E00E94E30301C0A7
:100F900080E089830E94B80491E090932B018981BD
:100FA0000F90CF91DF9108950F931F93CF93DF930D
:100FB000FC01EB018881998185309105E9F5CF012C
:100FC000019641816281338120E0048110E0022B8F
:100FD000132B9801215030402C37310568F51982C8
:100FE000188224E02083288139812F5F3F4F398385
:100FF0002883202F220F2183288139812F5F3F4FA3
:1010000039832883342F20E070E0622B732B6F5FCD
:101010007F4F0196A8010E943603882319F00E9491
:10102000A8090BC0000F111F88819981800F911FA3
:101030009983888380E001C083E0DF91CF911F9185
:101040000F910895FB012081318125303105A1F4F4
:10105000FC01318120E0628170E0622B732B6F5FB5
:101060007F4F039641E050E021E00E947103882306
:1010700029F00E94A809089583E0089580E008956A
:10108000CF93DF93FC01EB01888199818630910534
:1010900048F121816281938180E0448150E0482BB6
:1010A000592B3581CA01019788379105D8F4842FCF
:1010B000880F3817B9F4922F80E070E0682B792BF5
:1010C0006F5F7F4FCF01069621E00E947103882356
:1010D00019F00E94A80907C085E090E099838883F1
:1010E00080E001C083E0DF91CF9108950F931F93BB
:1010F000CF93DF93FC01EB018881998185309105C5
:10110000C9F5CF010196518162814481042F10E01D
:101110009801215030402D37310560F51982188231
:1011200023E02083288139812F5F3F4F3983288333
:10113000440F4183288139812F5F3F4F39832883B2
:10114000352F20E070E0622B732B6F5F7F4F01968D
:10115000A8010E947103882319F00E94A8090BC0FE
:10116000000F111F88819981800F911F99838883B7
:1011700080E001C083E0DF91CF911F910F9108952E
:10118000AF92BF92CF92DF92EF92FF920F931F9395
:10119000CF93DF93EC018B01FB01808191818A3039
:1011A000910508F46AC06E010894C11CD11CB98075
:1011B000AA809B8180E0EC80FF24E82AF92A7D81C7
:1011C0006E819F81488589859701215030402D3758
:1011D000310508F054C0392F20E050E0422B532B4A
:1011E0004115510509F44BC04A37510508F047C075
:1011F0009A01220F331F90E02817390709F03FC0EA
:10120000972F80E070E0682B792B6F5F7F4FCE01C6
:101210000A9621E00E947103882361F5F80111828A
:10122000108287E1888380819181019691838083F8
:101230008E2D880F8983808191810196918380838F
:101240009B2D80E06A2D70E0682B792B6F5F7F4FBC
:10125000C6010196A70120E00E947103882351F482
:10126000EE0CFF1CF801808191818E0D9F1D9183F2
:10127000808303C00E94A80903C080E001C083E00E
:10128000DF91CF911F910F91FF90EF90DF90CF9062
:10129000BF90AF900895CF93DF9330E0EB0153E020
:1012A000D695C7955A95E1F767707070E1E0F0E068
:1012B00002C0EE0FFF1F4A95E2F73197DC01AC0F39
:1012C000BD1F4C9150E02196C80FD91F988180E036
:1012D000482B592B062E02C0EE0FFF1F0A94E2F78F
:1012E000E095F0954E235F2302C0220F331F6A95CD
:1012F000E2F7422B532B4C935883DF91CF91089503
:101300009B01F3E036952795FA95E1F7DC01A20FF2
:10131000B31F8C9190E01196FC911197E0E08E2B19
:101320009F2BE3E0220F331FEA95E1F7621B730B5B
:1013300002C0969587956A95E2F721E030E002C0F9
:10134000220F331F4A95E2F721503040822308953F
:10135000883030F4E82FF0E0E656FF4F80810895A2
:1013600084E008951F93CF93DF93FC01EB01888104
:1013700099818530910509F048C0CF0101967181AE
:101380006281338120E0448150E0422B532B9A014B
:1013900021503040A7E02F3C3A07B8F51982188257
:1013A00021E02083288139812F5F3F4F39832883B3
:1013B000DA01A770B0709A0113E0369527951A9557
:1013C000E1F7109719F0122F1F5F01C0122F118340
:1013D000288139812F5F3F4F39832883372F20E0C1
:1013E00070E0622B732B6F5F7F4F01960E94BD03ED
:1013F000882319F00E94A80909C088819981810F6A
:10140000911D9983888380E001C083E0DF91CF91B3
:101410001F910895DF93CF9300D0CDB7DEB7FC01C5
:10142000DB018D919C9111978530910521F52181EA
:10143000628184818823F9F48381982F91509E3FA3
:10144000D0F01A828F3F19F481E0898301C019829C
:10145000922F80E070E0682B792B6F5F7F4FCE0179
:10146000019641E050E021E00E94BD03882329F06D
:101470000E94A80903C083E001C080E00F900F9094
:10148000CF91DF910895CF93DF93FC01EB01888129
:10149000998186309105B0F171816281938180E0FC
:1014A000448150E0482B592BA5819A012770307058
:1014B000CA01B3E096958795BA95E1F721153105F4
:1014C00009F08F5F9A012150304097E0203B3907A7
:1014D000C8F48A17B9F4972F80E070E0682B792B55
:1014E0006F5F7F4FCF01069621E00E94BD038823E6
:1014F00019F00E94A80907C085E090E099838883CD
:1015000080E001C083E0DF91CF9108951F93CF93D6
:10151000DF93FC01EB01888199818530910509F009
:1015200048C0CF01019671816281338120E04481FE
:1015300050E0422B532B9A0121503040A7E02F3C22
:101540003A07B8F51982188222E020832881398170
:101550002F5F3F4F39832883DA01A770B0709A015B
:1015600013E0369527951A95E1F7109719F0122F89
:101570001F5F01C0122F1183288139812F5F3F4FD8
:1015800039832883372F20E070E0622B732B6F5F45
:101590007F4F01960E94BF03882319F00E94A8097B
:1015A00009C088819981810F911D9983888380E08A
:1015B00001C083E0DF91CF911F910895CF93DF9316
:1015C000E9012296C032D105F0F4809335016623FB
:1015D00011F08FEF01C080E08093360182E090E04F
:1015E00090933401809333012115310571F0E7E3C5
:1015F000F1E0CF01BA01A9010E946B0BD093340135
:10160000C093330102C084E001C080E0DF91CF913C
:101610000895EF92FF920F931F93CF93DF938B0167
:10162000C0913301D0913401AC014F5F5F4F25E38E
:1016300031E0CA01B901AE010E946B0B2196F8019D
:10164000D183C08380E0DF91CF911F910F91FF90F4
:10165000EF900895629FD001739FF001829FE00D8B
:10166000F11D649FE00DF11D929FF00D839FF00D21
:10167000749FF00D659FF00D9927729FB00DE11DCD
:10168000F91F639FB00DE11DF91FBD01CF011124AA
:101690000895A1E21A2EAA1BBB1BFD010DC0AA1FB3
:1016A000BB1FEE1FFF1FA217B307E407F50720F0CB
:1016B000A21BB30BE40BF50B661F771F881F991F46
:1016C0001A9469F760957095809590959B01AC018F
:1016D000BD01CF010895FB01DC0102C001900D9214
:0C16E00041505040D8F70895F894FFCF17
:1016EC00AABBCC6400210030200211090B04D407E2
:1016FC0003760810400806220817C00801B2090535
:10170C000A0A0F430A02860A0000000000000000CB
:10171C0000000000000000000000000204040404AB
:02172C000406B1
:00000001FF
